:020000040000FA
:100000000A128A11FC2F423083120313B800C83041
:10001000B7000030B6000030B5006E08F0006F0881
:10002000F1000030F11BFF30F200F30001300A1242
:100030008A159A260A128A11730883120313BC00C8
:100040007208BB007108BA007008B9000A128A1160
:1000500015210A128A118312031338088316031319
:10006000A50083120313370883160313A400831219
:100070000313360883160313A300831203133508F2
:1000800083160313A200310883120313A3008316FF
:100090000313300883120313A200831603132F08DF
:1000A00083120313A100831603132E088312031374
:1000B000A00083160313250883120313A7008316D9
:1000C0000313240883120313A600831603132308C3
:1000D00083120313A500831603132208831203134C
:1000E000A4000A128A11E7240A128A118312031348
:1000F000230883160313A90083120313220883160F
:100100000313A80083120313210883160313A70007
:1001100083120313200883160313A60029088312F1
:100120000313A70083160313280883120313A600E2
:1001300083160313270883120313A50083160313E2
:10014000260883120313A4004B30A3007430A200CE
:100150002430A1000030A0000A128A11E7240A12FC
:100160008A11831203132308BC002208BB00210854
:10017000BA002008B9004130B8008030B700003024
:10018000B6000030B5000A128A1115210A128A1130
:10019000831203133808E6003708E5003608E40048
:1001A0003508E3000A128A15AC250A128A11831257
:1001B0000313640883160313AB008312031363084D
:1001C00083160313AA002B08A1002A08A000210D02
:1001D000A10CA00C210DA10CA00C2008831203136C
:1001E0009500831603132A080139A000A00EA00D64
:1001F000831203131708831603132006DF39200622
:10020000831203139700831603132A080239A000F0
:10021000A00E831203131708831603132006EF3969
:1002200020068312031397000800831203133C086F
:100230008039BD003D08C6003C08BD003D07BE003A
:100240003E08CD00BB1B4D144D08031935294D0A3E
:10025000031D32290030BC000030BB000030BA0062
:100260000030B900BB17BC013D290030BC00003094
:10027000BB000030BA000030B90038088039BD003A
:100280003D08C6063808BD003D07BE003E08CE004A
:10029000B71B4E144E0803195B294E0A031D58293B
:1002A0000030B8000030B7000030B6000030B500B4
:1002B000B717B80163290030B8000030B70000302C
:1002C000B6000030B5003808370436043504031D85
:1002D00082290030BC000030BB000030BA00003082
:1002E000B9008030BB047F30BC044608BD003D0827
:1002F000BC043C08B8003B08B7003A08B60039080F
:10030000B50008004D08031D8E290030B8000030EC
:10031000B7000030B6000030B50008004D08BD0041
:10032000BE013E08C0004E083D02BF00031CC003D2
:100330003F087F3EC70040080318013E003EC8004A
:100340003C08C5003B08C4003A08C3003908C20095
:100350000030BC000030BB000030BA000030B900F3
:100360000030CC000030CB000030CA000030C900A3
:10037000CE011A304E020318012A4E080319DD2956
:100380000130BD000310C20DC30DC40DC50DBD0B62
:10039000C2290130BD000310B90DBA0DBB0DBC0D53
:1003A000BD0BCB29CC1B39140130BD000310C90D86
:1003B000CA0DCB0DCC0DBD0BD62938084502031D47
:1003C000EB2937084402031DEB2936084302031DBD
:1003D000EB2935084202031CFC294C173508C202E0
:1003E0003608031C360FC3023708031C370FC4023C
:1003F0003808031C380FC5020130BD003D08CE0788
:10040000B9294508440443044204031D4914BB1B95
:10041000242A0130BD000310B90DBA0DBB0DBC0D6F
:10042000BD0B0B2ACC1B39140130BD000310C90DC4
:10043000CA0DCB0DCC0DBD0B162AFF30C707031814
:10044000C80AFF30C807072ACE01CC1F3D2AFF305B
:100450004905BD00FF304A05BE00FF304B05BF0017
:100460007F304C05C00040083F043E043D040319A2
:1004700039183B2A3D2ACE01CE0A4E0803196F2AAD
:100480000130B907003003180130BA0700300318F3
:100490000130BB07003003180130BC073C1C6F2A39
:1004A0003908BD003A08BE003B08BF003C08C00048
:1004B0000130C100400DC00CBF0CBE0CBD0CC10B07
:1004C0005A2A4008BC003F08BB003E08BA003D085D
:1004D000B9000130C7070318C80A0030C807480828
:1004E000803AFF0080307F02031D782AFF304702E8
:1004F000031C882AFF3083120313C7000030C80092
:100500000030BC000030BB000030BA000030B90041
:10051000831203134808803AFF0080307F02031DD6
:10052000932A013047020318A22A83120313C7013A
:10053000C8010030BC000030BB000030BA00003001
:10054000B900C601831203134708BD003D08CD0062
:100550004D1CAC2ABB17B02A7F30BD003D08BB053F
:100560004D08BD0003103D0CBE003E08BC007529BF
:100570008312031352088039D7005708DF0052084E
:10058000D7005707D8005808E100D11B6114610853
:100590000319D82A610A031DD52A0030D200003081
:1005A000D1000030D0000030CF00D117D201E02AB6
:1005B0000030D2000030D1000030D0000030CF0039
:1005C00056088039D7005708E00060085F06031D11
:1005D0005F175608D7005707D8005808E000D51B0A
:1005E000601460080319022B600A031DFF2A003003
:1005F000D6000030D5000030D4000030D300D5172D
:10060000D6010A2B0030D6000030D5000030D400CF
:100610000030D300610860020318502B5F1F142BB9
:100620008030D7005708DF066108D7005708E2007E
:100630006008D7005708E1006208D7005708E000BB
:100640004F08D7005708E2005308D7005708CF00DB
:100650006208D7005708D3005008D7005708E200B7
:100660005408D7005708D0006208D7005708D400B4
:100670005108D7005708E2005508D7005708D100A5
:100680006208D7005708D5005208D7005708E20083
:100690005608D7005708D2006208D7005708D6007E
:1006A000E2016008D700D8015808DA006108570253
:1006B000D900031CDA035A08803AFF0080307F0219
:1006C000031D642B1A305902031C9D2B8312031344
:1006D0005208510450044F040319702B0130712B40
:1006E0000030D7005708E2000030D2000030D100BF
:1006F0000030D0000030CF006008D7005708E1007C
:10070000A32B621C8C2B6208D7000310570C0138F6
:10071000D8005808E2008E2B0310E20C4F18E217A5
:100720000130D700520DD20CD10CD00CCF0CD70B0E
:10073000922B0130D7005708E1078312031360089A
:100740006102031C812B5F1BE42B6108031DB12B8D
:100750000030D2000030D1000030D0000030CF0097
:1007600008005308CF07540803110318013E031D66
:10077000D007550803110318013E031DD107560881
:1007800003110318013E031DD207521C862C621C64
:10079000D22B6208D7000310570C0138D800580834
:1007A000E200D42B0310E20C4F18E2170130D700FF
:1007B000520DD20CD10CD00CCF0CD70BD82B013052
:1007C000D7005708E107862C5208803AFF005608E8
:1007D000803A7F02031DF62B55085102031DF62BAC
:1007E00054085002031DF62B53084F0203184E2CD9
:1007F000FF30D700FF30D800FF30D900FF30DA00DB
:100800005308DB005408DC005508DD005608DE0004
:100810004F08DB025008031C500F0F2C102CDC0279
:100820005108031C510F152C162CDD025208031C15
:10083000520F1B2C1C2CDE025B08D7075C08031828
:100840005C0F232C242CD8075D0803185D0F292C7E
:100850002A2CD9075E0803185E0ADA075A08D20064
:100860005908D1005808D0005708CF008030D70071
:100870005708DF06E209E20A6208031D5C2C01301A
:10088000CF07003003180130D007003003180130C3
:10089000D107003003180130D2075C2C5308CF0277
:1008A0005408031C540FD0025508031C550FD102E5
:1008B0005608031C560FD2025208510450044F042C
:1008C000031D842C6208031D842C0030D2000030EC
:1008D000D1000030D0000030CF0008000130D70038
:1008E0000310CF0DD00DD10DD20DD70B702CE21B04
:1008F0004F14621C7D2C03147E2C0310E20D610842
:100900000319842C0130E102D11F6E2CE001E21F9B
:10091000912C62087F3903194F188F2C912CE0011C
:10092000E00A60080319C42C0130CF070030031817
:100930000130D007003003180130D1070030031810
:100940000130D207521CC42C4F08D7005008D800E1
:100950005108D9005208DA000130DB005A0DDA0CD8
:10096000D90CD80CD70CDB0BAE2C5A08D200590886
:10097000D1005808D0005708CF00610A0319C42CD1
:100980000130D7005708E107610A031D6108031D04
:10099000D42C0030D2000030D1000030D000003024
:1009A000CF0061080319DF01611CD82CD117DC2CA2
:1009B0007F30D7005708D1056108D7000310570CC6
:1009C000D8005808D200DF1F0800D2170800831291
:1009D000031323088039F9007908A8002308F900D7
:1009E0007907FA007A08AE00A21B2E142E0803190C
:1009F000062D2E0A031D042D0030A3000030A20096
:100A00000030A1000030A000A2170E2D0030A3007E
:100A10000030A2000030A1000030A000270880397B
:100A2000F9007908A8062708F9007907FA007A087A
:100A3000AD00A61B2D142D0803192B2D2D0A031D07
:100A4000292D0030A7000030A6000030A50000309E
:100A5000A400A617332D0030A7000030A6000030F8
:100A6000A5000030A4002D08031D2E08031D412DF4
:100A70000030A3000030A2000030A1000030A00030
:100A800008002008F9007908F00026080A128A15E3
:100A900089250A128A11710883120313B4007008A1
:100AA000B3003308F900FA01FB01FC017C08AC003B
:100AB0007B08AB007A08AA007908A9003408F9007D
:100AC000FA01FB01FC017C08B2007B08B1007A0846
:100AD000B0007908AF002108F9007908F000250876
:100AE0000A128A1589250A128A11710883120313C2
:100AF000B4007008B3003308F900FA01FB01FC01EF
:100B00007908A9077A0803110318013E031DAA07F3
:100B10007B0803110318013E031DAB077C0803117A
:100B20000318013E031DAC073408F900FA01FB016C
:100B3000FC017908AF077A0803110318013E031D71
:100B4000B0077B0803110318013E031DB1077C08A1
:100B500003110318013E031DB2072208F9007908AA
:100B6000F00024080A128A1589250A128A117108D0
:100B700083120313B4007008B3003308F900FA01BC
:100B8000FB01FC017908A9077A0803110318013E4B
:100B9000031DAA077B0803110318013E031DAB07C1
:100BA0007C0803110318013E031DAC073408F9004B
:100BB000FA01FB01FC017908AF077A080311031859
:100BC000013E031DB0077B0803110318013E031DFE
:100BD000B1077C0803110318013E031DB20708305A
:100BE000F9000310A90DAA0DAB0DAC0DF90BF12DF9
:100BF0002108F9007908F00024080A128A158925CD
:100C00000A128A11710883120313B4007008B3002A
:100C10003308F9003408FA00FB01FC017908A90740
:100C20007A0803110318013E031DAA077B0803116C
:100C30000318013E031DAB077C0803110318013E96
:100C4000031DAC072008F9007908F00025080A12F6
:100C50008A1589250A128A11710883120313B400B8
:100C60007008B3003308F9003408FA00FB01FC01F6
:100C70007908A9077A0803110318013E031DAA0782
:100C80007B0803110318013E031DAB077C08031109
:100C90000318013E031DAC070830F9000310A90D2D
:100CA000AA0DAB0DAC0DF90B4E2E2008F9007908FA
:100CB000F00024080A128A1589250A128A1171087F
:100CC00083120313B4007008B3003308F90034082A
:100CD000FA00FB01FC017908A9077A08031103183F
:100CE000013E031DAA077B0803110318013E031DE3
:100CF000AB077C0803110318013E031DAC07210854
:100D0000F9007908F00026080A128A1589250A12C6
:100D10008A11710883120313B4007008B3003308FA
:100D2000F9003408FA00FB01FC017908AF077A08E2
:100D300003110318013E031DB0077B0803110318BC
:100D4000013E031DB1077C0803110318013E031D7A
:100D5000B2072208F9007908F00025080A128A155E
:100D600089250A128A11710883120313B4007008CE
:100D7000B3003308F9003408FA00FB01FC017908DC
:100D8000AF077A0803110318013E031DB0077B0863
:100D900003110318013E031DB1077C08031103185A
:100DA000013E031DB2072208F9007908F000260869
:100DB0000A128A1589250A128A11710883120313EF
:100DC000B4007008B3003308F9003408FA00FB01DE
:100DD000FC0108300310F90DFA0DFB0DFC0DFF3E70
:100DE000031DEA2E7908AF077A0803110318013EA4
:100DF000031DB0077B0803110318013E031DB10753
:100E00007C0803110318013E031DB2072908F900ED
:100E10002A08FA002B08FB002C08FC0018300310ED
:100E2000FC0CFB0CFA0CF90CFF3E031D0F2F79088C
:100E3000AF077A0803110318013E031DB0077B08B2
:100E400003110318013E031DB1077C0803110318A9
:100E5000013E031DB2070830F9000310A90DAA0DC9
:100E6000AB0DAC0DF90B2D2F2E082D07F900FA0153
:100E7000FA0D7908823EB3007A080318013EFF3E5E
:100E8000B400B11B5E2F0130F9000310AF0DB00D9F
:100E9000B10DB20DF90B452FAC1B2F140130F90029
:100EA0000310A90DAA0DAB0DAC0DF90B502FFF309F
:100EB000B3070318B40AFF30B407412FAD01AC1FCC
:100EC000772FFF302905F900FF302A05FA00FF309F
:100ED0002B05FB007F302C05FC007C087B047A048A
:100EE000790403192F18752F772FAD01AD0A2D083E
:100EF0000319A92F0130AF07003003180130B007E4
:100F0000003003180130B107003003180130B20778
:100F1000321CA92F2F08F9003008FA003108FB0015
:100F20003208FC000130FD007C0DFC0CFB0CFA0CBF
:100F3000F90CFD0B942F7C08B2007B08B1007A08F5
:100F4000B0007908AF000130B3070318B40A0030CD
:100F5000B4073408803AFF0080307F02031DB22FAF
:100F6000FF303302031CBF2F7F3083120313B20004
:100F70008030B1000030B0000030AF00EF2F83129E
:100F800003133408803AFF0080307F02031DCA2F0C
:100F9000013033020318D82F003083120313B2003C
:100FA0000030B1000030B0000030AF00A801EF2FDA
:100FB000831203133308F9007908AE00FF30AF0540
:100FC000FF30B0057F30B1050030B2052E18B117E3
:100FD0002E08F9000310790CFA007A08B2002808EC
:100FE000F9007908B2043208A3003108A2003008E1
:100FF000A1002F08A000080083010A128A15192EEB
:101AF4008316031307118312031312151208FC39FA
:101B0400023892001708F0390C3897000800F800E2
:101B1400F401F5017008F200F3017208F60073088D
:101B2400F700781C9B2D7608F4070318F50A77084C
:101B3400F50701300310F60DF70DFF3E031D9C2D34
:101B44000310F80C7808031D932D7508F100740830
:101B5400F0000800031083120313650D660DE700FF
:101B64006708ED006D08031DC02D0030E60000304D
:101B7400E5000030E4000030E30008006308E700FB
:101B84006408E8006508E9006608EA001F300310ED
:101B9400EA0CE90CE80CE70CFF3E031DC92D6708AD
:101BA400EB006B08EC00E517FF30E305FF30E405BC
:101BB400FF30E5050030E6059630ED02ED1FF72D08
:101BC4006D08803A973E031CB72D01300310E60CD4
:101BD400E50CE40CE30CFF3E031DE82D0130E700A7
:101BE4006708ED0703190A2EE72D20306D0203184C
:101BF400B72D6D0803190A2E0130E7000310E30D19
:101C0400E40DE50DE60DE70B002E0130ED02FB2D92
:101C14006C0803190800E309E409E509E609E30A85
:101C24000319E40A0319E50A0319E60A0800D03087
:101C340083120313EE000730EF000A128A153D27C2
:101C44000A128A150A128A157A250A128A15003090
:101C540083120313EE00EF000A128A1103200A1202
:101C64008A1583160313B201B301831603133308D1
:101C740083120313EF008316031332088312031332
:101C8400EE000A128A1103200A128A1534308316D0
:101C94000313AD00F130AC00AC0B4E2EAD0B4E2E49
:101CA400013083160313B2070318B30A0030B307D5
:101CB4003308803AFF0080307F02031D632E6430B6
:101CC4003202031C372E643083160313B200003033
:101CD400B30083160313330883120313EF00831630
:101CE4000313320883120313EE000A128A1103202D
:101CF4000A128A15343083160313AD00F130AC0098
:101D0400AC0B822EAD0B822EFF3083160313B20769
:101D14000318B30AFF30B3073308803AFF0080305A
:101D24007F02031D972E01303202031C332E6B2ECB
:101D3400F8007808031DF31FAF2E7009FA0071092B
:101D4400FB007209FC007309FD00FA0A0319FB0A7F
:101D54000319FC0A0319FD0AB72E7308FD00720863
:101D6400FC007108FB007008FA0073087204710427
:101D74007004031DC62E0030F3000030F200003062
:101D8400F1000030F00008009630F4007408F90007
:101D9400FE307D050319F72E0130F4007408F907AD
:101DA40001300310FD0CFC0CFB0CFA0CFF3E031D70
:101DB400D32ECA2E0130F4007408F9070130FA0753
:101DC400003003180130FB07003003180130FC0712
:101DD400003003180130FD0701300310FD0CFC0C2A
:101DE400FB0CFA0CFF3E031DEF2EFF307D0503199B
:101DF4000B2FDC2E02307902031C0D2F0130F90267
:101E04000130F4000310FA0DFB0DFC0DFD0DF40B75
:101E1400042FFC1FFC2E7918172FFF30FA05FF3012
:101E2400FB057F30FC05FF30FD050310F90C790834
:101E3400F400F501F601F70118300310F40DF50D67
:101E4400F60DF70DFF3E031D1F2F7408FA047508E5
:101E5400FB047608FC047708FD047808031DF31FCF
:101E6400342FFD177D08F3007C08F2007B08F10095
:101E74007A08F0000800831203136E08F0006F085C
:101E8400F1000030F11BFF30F200F30001300A12C0
:101E94008A159A260A128A15730883160313B70043
:101EA4007208B6007108B5007008B40037088312D0
:101EB4000313B80083160313360883120313B70001
:101EC40083160313350883120313B6008316031312
:101ED400340883120313B5003F30BC008030BB00CC
:101EE4000030BA000030B9000A128A1115210A1212
:101EF4008A1583120313380883160313B10083125F
:101F04000313370883160313B00083120313360830
:101F140083160313AF0083120313350883160313C8
:101F2400AE00310883120313A7008316031330088D
:101F340083120313A600831603132F0883120313BB
:101F4400A500831603132E0883120313A4004B3039
:101F5400A3007430A2002430A1000030A0000A12B3
:101F64008A11E7240A128A15831203132308BC007A
:101F74002208BB002108BA002008B9004230B8008A
:101F84008030B7000030B6000030B5000A128A1164
:101F940015210A128A15831203133808D60037084C
:101FA400D5003608D4003508D300BF30D2008030C5
:101FB400D1000030D0000030CF000A128A11B822BC
:101FC4000A128A15831203135208E6005108E50029
:101FD4005008E4004F08E3000A128A15AC25831266
:101FE4000313640883160313A10083120313630805
:0C1FF40083160313A000200892000800D0
:02400E007A3FF7
:00000001FF
