:020000040000FA
:060000000A128A11F82F1C
:10000A00F800F401F5017008F200F3017208F60035
:10001A007308F700781C17287608F4070318F50AFE
:10002A007708F50701300310F60DF70DFF3E031DA3
:10003A0018280310F80C7808031D0F287508F1001A
:10004A007408F0000800831203131F147008F200EA
:10005A00F20DF20DF20D1F087206C73972069F00E3
:10006A003430F300F130F200F20B3928F30B39285F
:10007A003E28831203131F151F1941281E08F50075
:10008A00831603131E08F4007508F1007408F000C3
:10009A000800831203136E08F6006F08F700003099
:1000AA00F71BFF30F800F90001300A128A15A32560
:1000BA000A128A11790883160313B9007808B8005E
:1000CA007708B7007608B600390883120313B80018
:1000DA0083160313380883120313B7008316031316
:1000EA00370883120313B6008316031336088312E4
:1000FA000313B5003F30BC008030BB000030BA00AB
:10010A000030B9000A128A1111210A128A118312C7
:10011A000313380883160313B50083120313370831
:10012A0083160313B40083120313360883160313CA
:10013A00B30083120313350883160313B20035087C
:10014A0083120313A70083160313340883120313BD
:10015A00A60083160313330883120313A50083161C
:10016A000313320883120313A4004B30A300743024
:10017A00A2002430A1000030A0000A128A11E32450
:10018A000A128A11831203132308BC002208BB0037
:10019A002108BA002008B9004230B8008030B70000
:1001AA000030B6000030B5000A128A1111210A1275
:1001BA008A11831203133808D6003708D500360887
:1001CA00D4003508D300BF30D2008030D1000030CF
:1001DA00D0000030CF000A128A11B4220A128A1102
:1001EA00831203135208E6005108E5005008E400A0
:1001FA004F08E3000A128A1536258312031364088E
:10020A0083160313A10083120313630883160313CF
:10021A00A000200892000800831203133C088039CA
:10022A00BD003D08C6003C08BD003D07BE003E08B3
:10023A00CD00BB1B4D144D08031931294D0A031D6E
:10024A002E290030BC000030BB000030BA0000305C
:10025A00B900BB17BC0139290030BC000030BB0013
:10026A000030BA000030B90038088039BD003D08B6
:10027A00C6063808BD003D07BE003E08CE00B71BC3
:10028A004E144E08031957294E0A031D54290030EB
:10029A00B8000030B7000030B6000030B500B7171C
:1002AA00B8015F290030B8000030B7000030B6004E
:1002BA000030B5003808370436043504031D7E299A
:1002CA000030BC000030BB000030BA000030B9007A
:1002DA008030BB047F30BC044608BD003D08BC0426
:1002EA003C08B8003B08B7003A08B6003908B50020
:1002FA0008004D08031D8A290030B8000030B700F5
:10030A000030B6000030B50008004D08BD00BE013F
:10031A003E08C0004E083D02BF00031CC0033F0850
:10032A007F3EC70040080318013E003EC8003C0853
:10033A00C5003B08C4003A08C3003908C2000030AF
:10034A00BC000030BB000030BA000030B9000030F9
:10035A00CC000030CB000030CA000030C900CE010A
:10036A001A304E020318FD294E080319D929013003
:10037A00BD000310C20DC30DC40DC50DBD0BBE29B2
:10038A000130BD000310B90DBA0DBB0DBC0DBD0B7C
:10039A00C729CC1B39140130BD000310C90DCA0D81
:1003AA00CB0DCC0DBD0BD22938084502031DE72918
:1003BA0037084402031DE72936084302031DE729CB
:1003CA0035084202031CF8294C173508C2023608C0
:1003DA00031C360FC3023708031C370FC402380840
:1003EA00031C380FC5020130BD003D08CE07B529F0
:1003FA004508440443044204031D4914BB1B202A34
:10040A000130BD000310B90DBA0DBB0DBC0DBD0BFB
:10041A00072ACC1B39140130BD000310C90DCA0DBF
:10042A00CB0DCC0DBD0B122AFF30C7070318C80A23
:10043A00FF30C807032ACE01CC1F392AFF304905ED
:10044A00BD00FF304A05BE00FF304B05BF007F30BC
:10045A004C05C00040083F043E043D040319391806
:10046A00372A392ACE01CE0A4E0803196B2A0130DF
:10047A00B907003003180130BA07003003180130F9
:10048A00BB07003003180130BC073C1C6B2A390833
:10049A00BD003A08BE003B08BF003C08C00001305E
:1004AA00C100400DC00CBF0CBE0CBD0CC10B562ABE
:1004BA004008BC003F08BB003E08BA003D08B9002E
:1004CA000130C7070318C80A0030C8074808803A2D
:1004DA00FF0080307F02031D742AFF304702031C8D
:1004EA00842AFF3083120313C7000030C80000308B
:1004FA00BC000030BB000030BA000030B9008312E3
:10050A0003134808803AFF0080307F02031D8F2AB8
:10051A000130470203189E2A83120313C701C80138
:10052A000030BC000030BB000030BA000030B90017
:10053A00C601831203134708BD003D08CD004D1CB8
:10054A00A82ABB17AC2A7F30BD003D08BB054D0861
:10055A00BD0003103D0CBE003E08BC007129831289
:10056A00031352088039D7005708DF005208D70012
:10057A005707D8005808E100D11B61146108031914
:10058A00D42A610A031DD12A0030D2000030D100DA
:10059A000030D0000030CF00D117D201DC2A003061
:1005AA00D2000030D1000030D0000030CF00560811
:1005BA008039D7005708E00060085F06031D5F17FF
:1005CA005608D7005707D8005808E000D51B601412
:1005DA0060080319FE2A600A031DFB2A0030D600B0
:1005EA000030D5000030D4000030D300D517D60132
:1005FA00062B0030D6000030D5000030D400003081
:10060A00D3006108600203184C2B5F1F102B803047
:10061A00D7005708DF066108D7005708E2006008CC
:10062A00D7005708E1006208D7005708E0004F08D2
:10063A00D7005708E2005308D7005708CF006208CE
:10064A00D7005708D3005008D7005708E2005408CB
:10065A00D7005708D0006208D7005708D4005108BD
:10066A00D7005708E2005508D7005708D10062089A
:10067A00D7005708D5005208D7005708E200560895
:10068A00D7005708D2006208D7005708D600E201FF
:10069A006008D700D8015808DA0061085702D90063
:1006AA00031CDA035A08803AFF0080307F02031DD8
:1006BA00602B1A305902031C992B83120313520818
:1006CA00510450044F0403196C2B01306D2B003078
:1006DA00D7005708E2000030D2000030D1000030C5
:1006EA00D0000030CF006008D7005708E1009F2BE8
:1006FA00621C882B6208D7000310570C0138D800F7
:10070A005808E2008A2B0310E20C4F18E217013056
:10071A00D700520DD20CD10CD00CCF0CD70B8E2B8C
:10072A000130D7005708E1078312031360086102FA
:10073A00031C7D2B5F1BE02B6108031DAD2B0030D2
:10074A00D2000030D1000030D0000030CF000800C5
:10075A005308CF07540803110318013E031DD0079D
:10076A00550803110318013E031DD107560803114A
:10077A000318013E031DD207521C822C621CCE2B89
:10078A006208D7000310570C0138D8005808E20055
:10079A00D02B0310E20C4F18E2170130D700520D8C
:1007AA00D20CD10CD00CCF0CD70BD42B0130D700E4
:1007BA005708E107822C5208803AFF005608803A0F
:1007CA007F02031DF22B55085102031DF22B540818
:1007DA005002031DF22B53084F0203184A2CFF3014
:1007EA00D700FF30D800FF30D900FF30DA005308B5
:1007FA00DB005408DC005508DD005608DE004F080F
:10080A00DB025008031C500F0B2C0C2CDC02510885
:10081A00031C510F112C122CDD025208031C520F1B
:10082A00172C182CDE025B08D7075C0803185C0F2C
:10083A001F2C202CD8075D0803185D0F252C262CA9
:10084A00D9075E0803185E0ADA075A08D20059085F
:10085A00D1005808D0005708CF008030D700570879
:10086A00DF06E209E20A6208031D582C0130CF07AD
:10087A00003003180130D007003003180130D107C7
:10088A00003003180130D207582C5308CF025408FD
:10089A00031C540FD0025508031C550FD1025608E9
:1008AA00031C560FD2025208510450044F04031D70
:1008BA00802C6208031D802C0030D2000030D10049
:1008CA000030D0000030CF0008000130D7000310FC
:1008DA00CF0DD00DD10DD20DD70B6C2CE21B4F14BE
:1008EA00621C792C03147A2C0310E20D6108031997
:1008FA00802C0130E102D11F6A2CE001E21F8D2C0D
:10090A0062087F3903194F188B2C8D2CE001E00AFD
:10091A0060080319C02C0130CF07003003180130DA
:10092A00D007003003180130D10700300318013016
:10093A00D207521CC02C4F08D7005008D8005108C3
:10094A00D9005208DA000130DB005A0DDA0CD90C52
:10095A00D80CD70CDB0BAA2C5A08D2005908D100A4
:10096A005808D0005708CF00610A0319C02C01307B
:10097A00D7005708E107610A031D6108031DD02C3F
:10098A000030D2000030D1000030D0000030CF005B
:10099A0061080319DF01611CD42CD117D82C7F30D0
:1009AA00D7005708D1056108D7000310570CD800A3
:1009BA005808D200DF1F0800D21708008312031359
:1009CA0023088039F9007908A8002308F900790773
:1009DA00FA007A08AE00A21B2E142E080319022D63
:1009EA002E0A031D002D0030A3000030A2000030A3
:1009FA00A1000030A000A2170A2D0030A300003089
:100A0A00A2000030A1000030A00027088039F900B8
:100A1A007908A8062708F9007907FA007A08AD00CC
:100A2A00A61B2D142D080319272D2D0A031D252D6C
:100A3A000030A7000030A6000030A5000030A40056
:100A4A00A6172F2D0030A7000030A6000030A50001
:100A5A000030A4002D08031D2E08031D3D2D003073
:100A6A00A3000030A2000030A1000030A00008005E
:100A7A002008F9007908F00026080A128A110520D0
:100A8A000A128A11710883120313B4007008B300A2
:100A9A003308F900FA01FB01FC017C08AC007B0871
:100AAA00AB007A08AA007908A9003408F900FA010B
:100ABA00FB01FC017C08B2007B08B1007A08B00097
:100ACA007908AF002108F9007908F00025080A1210
:100ADA008A1105200A128A11710883120313B400BD
:100AEA007008B3003308F900FA01FB01FC01790828
:100AFA00A9077A0803110318013E031DAA077B08F8
:100B0A0003110318013E031DAB077C0803110318E8
:100B1A00013E031DAC073408F900FA01FB01FC0190
:100B2A007908AF077A0803110318013E031DB007BD
:100B3A007B0803110318013E031DB1077C0803114A
:100B4A000318013E031DB2072208F9007908F000D4
:100B5A0024080A128A1105200A128A1171088312BE
:100B6A000313B4007008B3003308F900FA01FB015B
:100B7A00FC017908A9077A0803110318013E031D2D
:100B8A00AA077B0803110318013E031DAB077C0863
:100B9A0003110318013E031DAC073408F900FA01DA
:100BAA00FB01FC017908AF077A0803110318013E1B
:100BBA00031DB0077B0803110318013E031DB1078B
:100BCA007C0803110318013E031DB2070830F9001F
:100BDA000310A90DAA0DAB0DAC0DF90BED2D2108D3
:100BEA00F9007908F00024080A128A1105200A126D
:100BFA008A11710883120313B4007008B300330812
:100C0A00F9003408FA00FB01FC017908A9077A08FF
:100C1A0003110318013E031DAA077B0803110318D9
:100C2A00013E031DAB077C0803110318013E031D97
:100C3A00AC072008F9007908F00025080A128A1181
:100C4A0005200A128A11710883120313B40070086E
:100C5A00B3003308F9003408FA00FB01FC017908F3
:100C6A00A9077A0803110318013E031DAA077B0886
:100C7A0003110318013E031DAB077C080311031877
:100C8A00013E031DAC070830F9000310A90DAA0D97
:100C9A00AB0DAC0DF90B4A2E2008F9007908F000CB
:100CAA0024080A128A1105200A128A11710883126D
:100CBA000313B4007008B3003308F9003408FA00CB
:100CCA00FB01FC017908A9077A0803110318013E00
:100CDA00031DAA077B0803110318013E031DAB0776
:100CEA007C0803110318013E031DAC072108F90013
:100CFA007908F00026080A128A1105200A128A11B8
:100D0A00710883120313B4007008B3003308F900A2
:100D1A003408FA00FB01FC017908AF077A080311CD
:100D2A000318013E031DB0077B0803110318013E97
:100D3A00031DB1077C0803110318013E031DB20706
:100D4A002208F9007908F00025080A128A110520FC
:100D5A000A128A11710883120313B4007008B300CF
:100D6A003308F9003408FA00FB01FC017908AF07DF
:100D7A007A0803110318013E031DB0077B0803110B
:100D8A000318013E031DB1077C0803110318013E35
:100D9A00031DB2072208F9007908F00026080A1292
:100DAA008A1105200A128A11710883120313B400EA
:100DBA007008B3003308F9003408FA00FB01FC019B
:100DCA0008300310F90DFA0DFB0DFC0DFF3E031D53
:100DDA00E62E7908AF077A0803110318013E031DAE
:100DEA00B0077B0803110318013E031DB1077C08F5
:100DFA0003110318013E031DB2072908F9002A0846
:100E0A00FA002B08FB002C08FC0018300310FC0C1D
:100E1A00FB0CFA0CF90CFF3E031D0B2F7908AF07E8
:100E2A007A0803110318013E031DB0077B0803115A
:100E3A000318013E031DB1077C0803110318013E84
:100E4A00031DB2070830F9000310A90DAA0DAB0D56
:100E5A00AC0DF90B292F2E082D07F900FA01FA0D0E
:100E6A007908823EB3007A080318013EFF3EB400B7
:100E7A00B11B5A2F0130F9000310AF0DB00DB10D9F
:100E8A00B20DF90B412FAC1B2F140130F9000310DE
:100E9A00A90DAA0DAB0DAC0DF90B4C2FFF30B30702
:100EAA000318B40AFF30B4073D2FAD01AC1F732FEE
:100EBA00FF302905F900FF302A05FA00FF302B051B
:100ECA00FB007F302C05FC007C087B047A04790443
:100EDA0003192F18712F732FAD01AD0A2D080319AD
:100EEA00A52F0130AF07003003180130B0070030DA
:100EFA0003180130B107003003180130B207321C61
:100F0A00A52F2F08F9003008FA003108FB00320833
:100F1A00FC000130FD007C0DFC0CFB0CFA0CF90CFA
:100F2A00FD0B902F7C08B2007B08B1007A08B00054
:100F3A007908AF000130B3070318B40A0030B407C8
:100F4A003408803AFF0080307F02031DAE2FFF3045
:100F5A003302031CBB2F7F3083120313B20080308D
:100F6A00B1000030B0000030AF00EB2F8312031342
:100F7A003408803AFF0080307F02031DC62F0130FB
:100F8A0033020318D42F003083120313B200003047
:100F9A00B1000030B0000030AF00A801EB2F83127F
:100FAA0003133308F9007908AE00FF30AF05FF30AC
:100FBA00B0057F30B1050030B2052E18B1172E08E2
:100FCA00F9000310790CFA007A08B2002808F9002F
:100FDA007908B2043208A3003108A2003008A1003F
:100FEA002F08A000080083160313BA01BB0183016E
:060FFA000A128A15482EC0
:101A32003F30831203139F05C7309F051F10831683
:101A420003139F171F13F0309F050800831603131B
:101A520007118312031312151208FC39023892007F
:101A62001708F0390C38970008000310831203138B
:101A7200650D660DE7006708ED006D08031D4A2D30
:101A82000030E6000030E5000030E4000030E30002
:101A920008006308E7006408E8006508E9006608D2
:101AA200EA001F300310EA0CE90CE80CE70CFF3ED9
:101AB200031D532D6708EB006B08EC00E517FF30A0
:101AC200E305FF30E405FF30E5050030E60596301A
:101AD200ED02ED1F812D6D08803A973E031C412DCA
:101AE20001300310E60CE50CE40CE30CFF3E031D91
:101AF200722D0130E7006708ED070319942D712D4F
:101B020020306D020318412D6D080319942D013008
:101B1200E7000310E30DE40DE50DE60DE70B8A2D5A
:101B22000130ED02852D6C0803190800E309E40970
:101B3200E509E609E30A0319E40A0319E50A0319A8
:101B4200E60A080083120313A0002008031DF91FF0
:101B5200BA2D7609A2007709A3007809A4007909B1
:101B6200A500A20A0319A30A0319A40A0319A50AC4
:101B7200C22D7908A5007808A4007708A30076088A
:101B8200A2007908780477047604031DD12D003071
:101B9200F9000030F8000030F7000030F6000800CD
:101BA2009630FA007A08A100FE3025050319022EAC
:101BB2000130FA007A08A10701300310A50CA40C29
:101BC200A30CA20CFF3E031DDE2DD52D0130FA0021
:101BD2007A08A1070130A207003003180130A307D9
:101BE200003003180130A407003003180130A507A4
:101BF20001300310A50CA40CA30CA20CFF3E031D84
:101C0200FA2DFF3025050319162EE72D0230210289
:101C1200031C182E0130A1020130FA000310A20D9C
:101C2200A30DA40DA50DFA0B0F2EA41F072E21182C
:101C3200222EFF30A205FF30A3057F30A405FF301E
:101C4200A5050310A10C2108FA00FB01FC01FD010E
:101C520018300310FA0DFB0DFC0DFD0DFF3E031DA8
:101C62002A2E7A08A2047B08A3047C08A4047D0817
:101C7200A5042008031DF91F3F2EA5172508F9000A
:101C82002408F8002308F7002208F6000800D030E4
:101C920083120313EE000730EF000A128A114E205E
:101CA2000A128A150A128A1527250A128A15003085
:101CB20083120313EE00EF000A128A15EE260A12AF
:101CC2008A150A128A1519250A128A150130F0009E
:101CD2000030F1000A128A1128200A128A157008AF
:101CE200F6007108F7000030F71BFF30F800F9002A
:101CF20001300A128A15A3250A128A157908831659
:101D02000313AF007808AE007708AD007608AC0088
:101D12002F0883120313A700831603132E088312BE
:101D22000313A600831603132D0883120313A500C1
:101D3200831603132C0883120313A4004230A3005A
:101D4200C830A2000030A1000030A0000A128A119F
:101D5200E3240A128A15831203132308BC00220803
:101D6200BB002108BA002008B9004430B8007F3017
:101D7200B700C030B6000030B5000A128A11112136
:101D82000A128A15831203133808E6003708E500A1
:101D92003608E4003508E3000A128A1536250A12CD
:101DA2008A1583120313640883160313B100831286
:101DB2000313630883160313B0003108831203135D
:101DC200EF0083160313300883120313EE000A1286
:101DD2008A15EE260A128A15672E423083120313E1
:101DE200B800C830B7000030B6000030B5006E0849
:101DF200F6006F08F7000030F71BFF30F800F9001B
:101E020001300A128A15A3250A128A15790883124B
:101E12000313BC007808BB007708BA007608B90043
:101E22000A128A1111210A128A1583120313380821
:101E320083160313A50083120313370883160313B3
:101E4200A40083120313360883160313A30083121C
:101E52000313350883160313A200350883120313F4
:101E6200A30083160313340883120313A2008316FC
:101E72000313330883120313A100831603133208DA
:101E820083120313A000831603132508831203137E
:101E9200A70083160313240883120313A6008316D4
:101EA2000313230883120313A500831603132208C6
:101EB20083120313A4000A128A11E3240A128A1558
:101EC20083120313230883160313A9008312031337
:101ED200220883160313A800831203132108831612
:101EE2000313A70083120313200883160313A6000B
:101EF200290883120313A7008316031328088312E9
:101F02000313A60083160313270883120313A500E5
:101F120083160313260883120313A4004B30A30075
:101F22007430A2002430A1000030A0000A128A11ED
:101F3200E3240A128A15831203132308BC00220821
:101F4200BB002108BA002008B9004130B800803037
:101F5200B7000030B6000030B5000A128A11112114
:101F62000A128A15831203133808E6003708E500BF
:101F72003608E4003508E3000A128A1536250A12EB
:101F82008A1583120313640883160313AB008312AA
:101F92000313630883160313AA002B08A1002A085F
:101FA200A000210DA10CA00C210DA10CA00C200859
:101FB200831203139500831603132A080139A00024
:101FC200A00EA00D83120313170883160313200615
:101FD200DF392006831203139700831603132A089E
:101FE2000239A000A00E83120313170883160313ED
:0E1FF2002006EF392006831203139700080023
:02400E007A3FF7
:00000001FF
