:060000000A128A11F82F1C
:10002000031083120313650D660DEC006C08031DAD
:100030001A281B2824280030E6000030E500003094
:10004000E4000030E30087286308E7006408E80064
:100050006508E9006608EA001F300310EA0CE90CA5
:10006000E80CE70CFF3E031D2D286708EB00E517A1
:10007000FF30E305FF30E405FF30E5050030E6051D
:100080009630EC02EC1F4528462860286C08803A20
:10009000973E03184C284D284E281B28013003108A
:1000A000E60CE50CE40CE30CFF3E031D4F28013089
:1000B000E7006708EC07031D5E285F284E287728B5
:1000C00020306C02031C6528662872281B2801302A
:1000D000E7000310E30DE40DE50DE60DE70B6928DD
:1000E0000130EC026C08031D7628772867286B081E
:1000F00003197B287C288728E309E409E509E60938
:10010000E30A0319E40A0319E50A0319E60A0800D9
:10011000831203133C088039C6003C08BD003D072C
:10012000CD00BB1F9428952896284D144D0803191F
:100130009A289B28AB284D0A031D9F28A028A82891
:100140000030BC000030BB000030BA000030B90005
:10015000BB17BC01B3280030BC000030BB0000302E
:10016000BA000030B90038088039BD003D08C60625
:100170003808BD003D07CE00B71FBF28C028C128E2
:100180004E144E080319C528C628D6284E0A031D4A
:10019000CA28CB28D3280030B8000030B700003080
:1001A000B6000030B500B717B801DE280030B8003F
:1001B0000030B7000030B6000030B5003808370412
:1001C00036043504031DE528E628FF280030BC006E
:1001D0000030BB000030BA000030B9008030BB04F2
:1001E0007F30BC044608BD003D08BC043C08B80094
:1001F0003B08B7003A08B6003908B5005A2A4D083E
:10020000031D032904290D290030B8000030B70070
:100210000030B6000030B5005A2A4D08BD00BE01BE
:100220003E08C0004E083D02BF00031CC0033F084B
:100230007F3EC70040080318013E003EC8003C084E
:10024000C5003B08C4003A08C3003908C2000030AA
:10025000BC000030BB000030BA000030B9000030F4
:10026000CC000030CB000030CA000030C900CE0105
:1002700083294E0803193D293E295E290130BD001E
:100280000310C20DC30DC40DC50DBD0B40290130B7
:10029000BD000310B90DBA0DBB0DBC0DBD0B492936
:1002A000CC1F53295429552939140130BD0003109E
:1002B000C90DCA0DCB0DCC0DBD0B57293808450211
:1002C000031D6C2937084402031D6C2936084302BC
:1002D000031D6C2935084202031C6F2970297F29F0
:1002E0004C173508C2023608031C360FC302370804
:1002F000031C370FC4023808031C380FC502013035
:10030000BD003D08CE071A304E02031C88298929FA
:1003100039294508440443044204031990299129CA
:10032000B0294914B0290130BD000310B90DBA0D30
:10033000BB0DBC0DBD0B9529CC1F9F29A029A12960
:1003400039140130BD000310C90DCA0DCB0DCC0D01
:10035000BD0BA329FF30C7070318C80AFF30C80721
:10036000BB1FB329B4299329CE01CC1FB829B929C1
:10037000D529FF304905BD00FF304A05BE00FF30DA
:100380004B05BF007F304C05C00040083F043E04D1
:100390003D040319CC29CD29D029CE01CE0AD52977
:1003A000391CD329D429D529CD294E080319D92997
:1003B000DA290B2A0130B907003003180130BA07D7
:1003C000003003180130BB07003003180130BC07B0
:1003D0003C1CEB29EC290B2A3908BD003A08BE0069
:1003E0003B08BF003C08C0000130C100400DC00CFC
:1003F000BF0CBE0CBD0CC10BF6294008BC003F0869
:10040000BB003E08BA003D08B9000130C707031819
:10041000C80A0030C8074808803AFF0080307F02D1
:10042000031D142AFF304702031C172A182A262A04
:10043000FF3083120313C7000030C8000030BC0037
:100440000030BB000030BA000030B9008312031343
:100450004808803AFF0080307F02031D312A0130B6
:1004600047020318342A352A422A83120313C7018C
:10047000C8010030BC000030BB000030BA000030C2
:10048000B900C601831203134708CD004D1C492A49
:100490004A2A4C2ABB17502A7F30BD003D08BB05B5
:1004A0004D08BD0003103D0CBC004608BD003D08D2
:1004B000BC04F62808008312031352088039DF00B9
:1004C0005208D7005707E100D11F672A682A692A16
:1004D0006114610803196D2A6E2A7E2A610A031DC0
:1004E000722A732A7B2A0030D2000030D1000030FB
:1004F000D0000030CF00D117D201862A0030D200C0
:100500000030D1000030D0000030CF0056088039D4
:10051000E00060085F0603198E2A8F2A902A5F1771
:100520005608D7005707E000D51F972A982A992A1E
:100530006014600803199D2A9E2AAE2A600A031DD2
:10054000A22AA32AAB2A0030D6000030D500003002
:10055000D4000030D300D517D601B62A0030D6001B
:100560000030D5000030D4000030D30061086002B4
:100570000318BB2ABC2AE22A5F1FBF2AC02AC42A4A
:100580008030D7005708DF066108E2006008E1000C
:100590006208E0004F08E2005308CF006208D30071
:1005A0005008E2005408D0006208D4005108E2006C
:1005B0005508D1006208D5005208E2005608D20062
:1005C0006208D600E2016008D700D8015808DA00B6
:1005D00061085702D900031CDA035A08803AFF0069
:1005E00080307F02031DF62A1A305902031CF92AB3
:1005F000FA2A312B831203135208510450044F047A
:10060000031D032B052B0130062B0030E2000030C8
:10061000D2000030D1000030D0000030CF006008A0
:10062000E100392B621C152B162B1D2B6208D700FD
:100630000310570C0138E2001F2B0310E20C4F1C73
:10064000222B232B242BE2170130D700520DD20C82
:10065000D10CD00CCF0CD70B262B0130D70057086C
:10066000E1078312031360086102031C382B392B46
:10067000122B5F1B3C2B3D2B862B6108031D412B4E
:10068000422B4B2B0030D2000030D1000030D00084
:100690000030CF00B22C5308CF07540803110318C1
:1006A000013E0319542BD007550803110318013ECE
:1006B00003195B2BD107560803110318013E0319D8
:1006C000622BD207521C652B662B3A2C621C692BBD
:1006D0006A2B712B6208D7000310570C0138E20017
:1006E000732B0310E20C4F1C762B772B782BE21721
:1006F0000130D700520DD20CD10CD00CCF0CD70B3F
:100700007A2B0130D7005708E1073A2C5208803A7B
:10071000FF005608803A7F02031D982B55085102AE
:10072000031D982B54085002031D982B53084F02A9
:1007300003189B2B9C2BF42BFF30D700FF30D800E5
:10074000FF30D900FF30DA005308DB005408DC002A
:100750005508DD005608DE004F08DB025008031C78
:10076000500FB32BB42BDC025108031C510FB92BD3
:10077000BA2BDD025208031C520FBF2BC02BDE0226
:100780005B08D7075C0803185C0FC72BC82BD8077A
:100790005D0803185D0FCD2BCE2BD9075E0803181B
:1007A0005E0ADA075A08D2005908D1005808D0006A
:1007B0005708CF008030D7005708DF06E209E20A69
:1007C0006208031DE42BE52B022C0130CF0700301B
:1007D00003180130D007003003180130D107003072
:1007E00003180130D207022C5308CF025408031C0F
:1007F000540FD0025508031C550FD1025608031C94
:10080000560FD2025208510450044F04031D092C04
:100810000A2C362C6208031D0E2C0F2C362C0030AF
:10082000D2000030D1000030D0000030CF00B22C18
:100830000130D7000310CF0DD00DD10DD20DD70B45
:100840001A2CE21F242C252C262C4F14621C292C38
:100850002A2C2D2C0314E20D2F2C0310E20D61081D
:100860000319332C342C362C0130E102D11F392CE2
:100870003A2C182CE001E21F3E2C3F2C4D2C620834
:100880007F390319442C452C482CE001E00A4D2CFB
:100890004F1C4B2C4C2C4D2C452C60080319512C13
:1008A000522C862C0130CF07003003180130D007BE
:1008B000003003180130D107003003180130D2078F
:1008C000521C632C642C862C4F08D7005008D8008B
:1008D0005108D9005208DA000130DB005A0DDA0C59
:1008E000D90CD80CD70CDB0B6E2C5A08D200590847
:1008F000D1005808D0005708CF00610A0319812C95
:10090000822C862C0130D7005708E107610A0319B1
:100910008A2C8B2C902C6108031D8F2C902C9E2CE4
:100920000030D2000030D1000030D0000030CF00C5
:100930006108031D9C2C9D2C9E2CDF01611CA12CA9
:10094000A22CA42CD117A82C7F30D7005708D10592
:100950006108D7000310570CD200DF1FB02CB12C58
:10096000B22CD21708008312031323088039A80081
:100970002308F9007907AE00A21FBF2CC02CC12CA0
:100980002E142E080319C52CC62CD52C2E0A031D97
:10099000CA2CCB2CD32C0030A3000030A200003096
:1009A000A1000030A000A217DD2C0030A300003011
:1009B000A2000030A1000030A00027088039F90013
:1009C0007908A8062708F9007907AD00A61FE92CC9
:1009D000EA2CEB2C2D142D080319EF2CF02CFF2CF6
:1009E0002D0A031DF42CF52CFD2C0030A70000303F
:1009F000A6000030A5000030A400A617072D003087
:100A0000A7000030A6000030A5000030A4002D088B
:100A100003190B2D0C2D112D2E08031D102D112D3A
:100A20001A2D0030A3000030A2000030A1000030D9
:100A3000A000F72F2008F00026080A128A151E24AD
:100A40000A128A11710883120313B4007008B300EC
:100A50003308F900FA01FB01FC017C08AC007B08BB
:100A6000AB007A08AA007908A9003408F900FA0155
:100A7000FB01FC017C08B2007B08B1007A08B000E1
:100A80007908AF002108F00025080A128A151E24F3
:100A90000A128A11710883120313B4007008B3009C
:100AA0003308F900FA01FB01FC017908A9077A086B
:100AB00003110318013E03195E2DAA077B080311D9
:100AC0000318013E0319652DAB077C0803110318B9
:100AD000013E03196C2DAC073408F900FA01FB0143
:100AE000FC017908AF077A0803110318013E0319C6
:100AF0007A2DB0077B0803110318013E0319812DDD
:100B0000B1077C0803110318013E0319882DB207B1
:100B10002208F00024080A128A151E240A128A11DB
:100B2000710883120313B4007008B3003308F9008E
:100B3000FA01FB01FC017908A9077A0803110318DF
:100B4000013E0319A42DAA077B0803110318013ED7
:100B50000319AB2DAB077C0803110318013E0319E1
:100B6000B22DAC073408F900FA01FB01FC01790849
:100B7000AF077A0803110318013E0319C02DB0070F
:100B80007B0803110318013E0319C72DB1077C0828
:100B900003110318013E0319CE2DB2070830F900E6
:100BA0000310A90DAA0DAB0DAC0DF90BD02D21082A
:100BB000F00024080A128A151E240A128A117108EC
:100BC00083120313B4007008B3003308F90034082B
:100BD000FA00FB01FC017908A9077A080311031840
:100BE000013E0319F42DAA077B0803110318013EE7
:100BF0000319FB2DAB077C0803110318013E0319F1
:100C0000022EAC072008F00025080A128A151E24BF
:100C10000A128A11710883120313B4007008B3001A
:100C20003308F9003408FA00FB01FC017908A90730
:100C30007A0803110318013E03191F2EAA077B0827
:100C400003110318013E0319262EAB077C0803117C
:100C50000318013E03192D2EAC070830F9000310CC
:100C6000A90DAA0DAB0DAC0DF90B2F2E2008F0002D
:100C700024080A128A151E240A128A117108831286
:100C80000313B4007008B3003308F9003408FA0005
:100C9000FB01FC017908A9077A0803110318013E3A
:100CA0000319532EAA077B0803110318013E0319E9
:100CB0005A2EAB077C0803110318013E0319612E5D
:100CC000AC072108F00026080A128A151E240A1211
:100CD0008A11710883120313B4007008B30033083B
:100CE000F9003408FA00FB01FC017908AF077A0823
:100CF00003110318013E03197E2EB0077B08031170
:100D00000318013E0319852EB1077C08031103184F
:100D1000013E03198C2EB2072208F00025080A12A2
:100D20008A151E240A128A11710883120313B40053
:100D30007008B3003308F9003408FA00FB01FC0125
:100D40007908AF077A0803110318013E0319A92E89
:100D5000B0077B0803110318013E0319B02EB10739
:100D60007C0803110318013E0319B72EB2072208AD
:100D7000F00026080A128A151E240A128A11710828
:100D800083120313B4007008B3003308F900340869
:100D9000FA00FB01FC0108300310F90DFA0DFB0D00
:100DA000FC0DFF3E031DCC2E7908AF077A08031116
:100DB0000318013E0319DD2EB0077B080311031849
:100DC000013E0319E42EB1077C0803110318013E0C
:100DD0000319EB2EB2072908F9002A08FA002B089C
:100DE000FB002C08FC0018300310FC0CFB0CFA0C68
:100DF000F90CFF3E031DF42E7908AF077A080311A2
:100E00000318013E0319052FB0077B0803110318CF
:100E1000013E03190C2FB1077C0803110318013E92
:100E20000319132FB2070830F9000310A90DAA0DFA
:100E3000AB0DAC0DF90B152F2E082D07F900FA019B
:100E4000FA0D7908823EB3007A080318013EFF3E8E
:100E5000B400472F0130F9000310AF0DB00DB10DF4
:100E6000B20DF90B2C2FAC1F362F372F382F2F1424
:100E70000130F9000310A90DAA0DAB0DAC0DF90B53
:100E80003A2FFF30B3070318B40AFF30B407B11F7D
:100E90004A2F4B2F2A2FAD01AC1F4F2F502F6C2FF5
:100EA000FF302905F900FF302A05FA00FF302B0535
:100EB000FB007F302C05FC007C087B047A0479045D
:100EC0000319632F642F672FAD01AD0A6C2F2F1C00
:100ED0006A2F6B2F6C2F642F2D080319702F712F21
:100EE000A22F0130AF07003003180130B0070030E7
:100EF00003180130B107003003180130B207321C6B
:100F0000822F832FA22F2F08F9003008FA00310812
:100F1000FB003208FC000130FD007C0DFC0CFB0CDA
:100F2000FA0CF90CFD0B8D2F7C08B2007B08B10088
:100F30007A08B0007908AF000130B3070318B40A8B
:100F40000030B4073408803AFF0080307F02031D70
:100F5000AB2FFF303302031CAE2FAF2FBA2F7F30E1
:100F600083120313B2008030B1000030B0000030B3
:100F7000AF00EB2F831203133408803AFF00803058
:100F80007F02031DC52F013033020318C82FC92F5C
:100F9000D52F003083120313B2000030B1000030AF
:100FA000B0000030AF00A801EB2F83120313330809
:100FB000AE00FF30AF05FF30B0057F30B105003027
:100FC000B2052E1CE42FE52FE62FB1172E08F900ED
:100FD0000310790CB2002808F9007908B20432082D
:100FE000A3003108A2003008A1002F08A0000800CB
:100FF00083160313B701B80183010A128A15DE2C88
:101802003F30831203139F05C7309F051F108316B5
:1018120003139F171F13F0309F050800831603134D
:1018220007118312031312151208FC3902389200B1
:101832001708F0390C3897000800F800F401F50198
:101842007008F200F3017208F6007308F700781CC2
:101852002B2C2C2C322C7608F4070318F50A770867
:10186200F50701300310F60DF70DFF3E031D332C73
:101872000310F80C7808031D3F2C402C282C750807
:10188200F1007408F0000800831203131F1470089B
:10189200F200F20DF20DF20D1F087206C739720640
:1018A2009F003430F300F130F200F20B562CF30BB0
:1018B200562C5B2C831203131F151F19612C622CEB
:1018C2005E2C1E08F500831603131E08F40075082B
:1018D200F1007408F000080083160313A501A11F8C
:1018E200732C742C7B2CA009A109A00A0319A10A4C
:1018F200A501A50AA31F7E2C7F2C8C2CA209A3096B
:10190200A20A0319A30A013083120313ED006D0822
:1019120083160313A506A601A701200821040319B3
:10192200932C942CCF2CA401A40AA62C01300310D2
:10193200A00DA10DFF3E031D982C0130831203134D
:10194200ED006D0883160313A407A11FA92CAA2C6E
:10195200972C01300310A60DA70DFF3E031DAB2CE3
:1019620021082302031DB72C20082202031CBA2CD3
:10197200BB2CC22C2008A2022108031CA303A30231
:10198200261401300310A10CA00CFF3E031DC32C32
:101992000130A402031DCE2CCF2CAA2C250803193A
:1019A200D32CD42CD92CA609A709A60A0319A70A55
:1019B2002708A1002608A0000800D03083120313D4
:1019C200ED000730EE000A128A1539260A128A152E
:1019D2000A128A150F240A128A1500308312031381
:1019E200ED00EE000A128A15FE260A128A150A1264
:1019F2008A1501240A128A150130F0000030F10024
:101A02000A128A1545240A128A157008F60071080E
:101A1200F7000030F71BFF30F800F90001300A121E
:101A22008A157F250A128A15790883160313AC00DA
:101A32007808AB007708AA007608A900FF30A0005A
:101A42000330A1002C0883120313A700831603138B
:101A52002B0883120313A600831603132A0883128A
:101A62000313A50083160313290883120313A4008A
:101A72004230A300C830A2000030A1000030A00014
:101A82000A128A11B3240A128A1583120313230835
:101A9200E6002208E5002108E4002008E3000A121B
:101AA2008A1110200A128A158312031364088316FE
:101AB2000313A30083120313630883160313A20004
:101AC2000A128A156D240A128A1583160313210835
:101AD200AE002008AD002E0883120313EE00831619
:101AE20003132D0883120313ED000A128A15FE2632
:101AF2000A128A15FD2C0A128A1100288312031376
:101B0200A00020080319862D872D9B2DF91F8A2DF1
:101B12008B2D9B2D7609A2007709A3007809A400DA
:101B22007909A500A20A0319A30A0319A40A031931
:101B3200A50AA32D7908A5007808A4007708A300B8
:101B42007608A2007908780477047604031DAA2D8A
:101B5200AB2DB42D0030F9000030F8000030F70052
:101B62000030F600382E9630A100C42D0130FA0064
:101B72007A08A10701300310A50CA40CA30CA20C37
:101B8200FF3E031DBC2DFE302505031DC92DCA2DA8
:101B9200B72DE62D0130FA007A08A1070130A2071D
:101BA200003003180130A307003003180130A407E6
:101BB200003003180130A50701300310A50CA40C56
:101BC200A30CA20CFF3E031DDE2DFF302505031DD5
:101BD200EB2DEC2DCB2DF82D0130A1020130FA00B6
:101BE2000310A20DA30DA40DA50DFA0BF12DA41B3C
:101BF200FB2DFC2D022E023021020318012E022E93
:101C0200ED2D2118052E062E0E2EFF30A205FF30D7
:101C1200A3057F30A405FF30A5050310A10C210800
:101C2200FA00FB01FC01FD0118300310FA0DFB0D57
:101C3200FC0DFD0DFF3E031D162E7A08A2047B0843
:101C4200A3047C08A4047D08A504200803192A2EF5
:101C52002B2E302EF91F2E2E2F2E302EA5172508B3
:101C6200F9002408F8002308F7002208F60008000B
:101C7200831203136D08F6006E08F7000030F71B9D
:101C8200FF30F800F90001300A128A157F250A1286
:101C92008A15790883160313B6007808B500770809
:101CA200B4007608B300360883120313B800831613
:101CB2000313350883120313B70083160313340882
:101CC20083120313B600831603133308831203131C
:101CD200B5003F30BC008030BB000030BA0000309D
:101CE200B9000A128A1188200A128A158312031374
:101CF200380883160313B2008312031337088316BE
:101D02000313B10083120313360883160313B000C2
:101D120083120313350883160313AF0032088312AC
:101D22000313A70083160313310883120313A600BB
:101D320083160313300883120313A50083160313BB
:101D42002F0883120313A4004B30A3007430A200A7
:101D52002430A1000030A0000A128A11B3240A1212
:101D62008A15831203132308BC002208BB00210832
:101D7200BA002008B9004230B8008030B700003005
:101D8200B6000030B5000A128A1188200A128A159C
:101D9200831203133808D6003708D5003608D4005A
:101DA2003508D300BF30D2008030D1000030D000DF
:101DB2000030CF000A128A115B220A128A1583129E
:101DC20003135208E6005108E5005008E4004F08EA
:101DD200E3000A128A1110200A128A1583120313D1
:101DE200640883160313A100831203136308831686
:101DF2000313A0002008920008004230831203134C
:101E0200B800C830B7000030B6000030B5006D0829
:101E1200F6006E08F7000030F71BFF30F800F900FB
:101E220001300A128A157F250A128A15790883124F
:101E32000313BC007808BB007708BA007608B90023
:101E42000A128A1188200A128A158312031338088B
:101E520083160313A3008312031337088316031395
:101E6200A20083120313360883160313A100831200
:101E72000313350883160313A000320883120313D9
:101E8200A30083160313310883120313A2008316DF
:101E92000313300883120313A100831603132F08C0
:101EA20083120313A0008316031323088312031360
:101EB200A70083160313220883120313A6008316B6
:101EC2000313210883120313A500831603132008AA
:101ED20083120313A4000A128A11B3240A128A1568
:101EE20083120313230883160313A7008312031319
:101EF200220883160313A6008312031321088316F4
:101F02000313A50083120313200883160313A400EE
:101F1200270883120313A7008316031326088312CC
:101F22000313A60083160313250883120313A500C7
:101F320083160313240883120313A4004B30A30057
:101F42007430A2002430A1000030A0000A128A11CD
:101F5200B3240A128A15831203132308BC00220831
:101F6200BB002108BA002008B9004130B800803017
:101F7200B7000030B6000030B5000A128A1188207E
:101F82000A128A15831203133808E6003708E5009F
:101F92003608E4003508E3000A128A1110200A12FA
:101FA2008A1583120313630883160313A8002808F3
:101FB20083120313EF0002300310EF0CFF3E031DE8
:101FC200DD2F6F0895008316031328080139831249
:101FD2000313EF00EF0EEF0D17086F06DF396F06E0
:101FE2009700831603132808023983120313EF00A4
:0E1FF200EF0E17086F06EF396F069700080014
:08400000FF3FFF3FFF3FFF3FC0
:02400E007A3FF7
:00000001FF
