:020000040000FA
:060000000A128A110C280F
:10000800FE00030EF3000A08F4000A128A113428CD
:100018000A128A110F28F001F101F20183010A1274
:100028008A111628FD30F500750883160313870515
:100038000A128A114A200A128A110A128A115320B6
:100048000A128A11053070067104031D2628F00172
:10005800F1010230F500750883120313870626287C
:10006800831203130C1C43289E308F0058308E00D7
:100078000C100130F0070318F10A0030F10774087A
:100088008A00730E8300FE0E7E0E09008B170B1775
:10009800831603130C14831203130C100800831225
:0C00A8000313101690169010101408009E
:02400E007A3FF7
:00000001FF
