:020000040000FA
:060000000A128A11FC2F18
:100F1C0083160313870183120313870108000A1237
:100F2C008A118E270A128A110A128A11A0270A1214
:100F3C008A119A2F0130831203138700D030F100ED
:100F4C00C930F000F00BA82FF10BA82FAD2F0330F8
:100F5C00831203138700D030F100C930F000F00B7E
:100F6C00B52FF10BB52FBA2F023083120313870064
:100F7C00D030F100C930F000F00BC22FF10BC22FB2
:100F8C00C72F0630831203138700D030F100C9300D
:100F9C00F000F00BCF2FF10BCF2FD42F0430831296
:100FAC0003138700D030F100C930F000F00BDC2FB8
:100FBC00F10BDC2FE12F0C30831203138700D030A0
:100FCC00F100C930F000F00BE92FF10BE92FEE2FF7
:100FDC000830831203138700D030F100C930F000C1
:100FEC00F00BF62FF10BF62FFB2F080083010A12E2
:040FFC008A11952F92
:02400E007A3FF7
:00000001FF
