:020000040000FA
:100000000A128A11FC2F00308A000408840A820731
:100010000034483465346C346C346F3420345734D5
:0A0020006F3472346C346434003421
:100E340083160313860187010800F20072088312E7
:100E44000313870086170630F1003030F000F00BF2
:100E5400292FF10B292F00007F30F0007008831236
:100E6400031386050800BF30F000700883120313D3
:100E740086050F30870086170630F1003030F00009
:100E8400F00B422FF10B422F00007F30F00070086E
:100E940083120313860506170800BF30F00070089C
:100EA4008312031386050230870086170630F1008B
:100EB4003030F000F00B5C2FF10B5C2F00007F3022
:100EC400F000700883120313860506170800BF306C
:100ED400F000700883120313860514308700861708
:100EE4000630F1003030F000F00B762FF10B762F46
:100EF40000007F30F0007008831203138605061784
:100F040008000A128A111A270A128A110A128A116F
:100F140035270A128A1101300A128A11D7270A12B8
:100F24008A110830F2000030F3000A128A11B8273F
:100F34000A128A119C2FF3007308F2007208F4005D
:100F4400740884000A128A1103200A128A11003AD2
:100F54000319B12F0130F2007208F407A22F7308AD
:100F64007402F000F101F01BF10308000A128A1167
:100F74004F270A128A11F501F6017608803AF40027
:100F84007308803A7402031DC92F7208750203188E
:100F940008000A128A1169270A128A110130F5071A
:100FA4000318F60A0030F607BF2FF700F501F60123
:100FB40077080A128A119D270A128A11710876028B
:100FC400031DE62F700875020318080075087707DB
:100FD40084000A128A1103200A128A110A128A1141
:100FE4001F270A128A110130F5070318F60A003088
:0C0FF400F607DA2F83010A128A11832FFE
:02400E007A3FF7
:00000001FF
