:020000040000FA
:100000000A128A11F52F00308A000408840A820738
:100010000034013400340A34003464340034E834E9
:10002000033410342734533465346E3473346F34EE
:1000300072342034563461346C3475346534203471
:0A0040003D342034253464340034CC
:100A5800F000831203130C1E2D2D70089900080056
:100A680064008001840A0406031900340406352D45
:100A780083160313181398161812181583120313E4
:100A880098171813181608003F30831203139F0590
:100A9800C7309F051F10831603139F171F13F030CD
:100AA8009F050800F3007308F2007208F400740848
:100AB8008400831300080319662D0130F2007208C0
:100AC800F4075B2D73087402F000F101F01BF103C9
:100AD8000800831203135808F0005908F100003089
:100AE800F11BFF30F200F3000030F7000F30F60082
:100AF8004230F5004030F4000A128A118E26700840
:100B0800FF3E8316031399000800831203131F1472
:100B18007008F200F20DF20DF20D1F087206C739C7
:100B280072069F003430F300F130F200F20B9A2D78
:100B3800F30B9A2D9F2D831203131F151F19A22D36
:100B48001E08F500831603131E08F4007508F1004B
:100B58007408F0000800F800F601F70178080A1296
:100B68008A1156250A128A1171087702031DBE2DB3
:100B7800700876020318D32D76087807F5007508F3
:100B88008400831300080A128A112C250A128A117C
:100B98000130F6070318F70A0030F707B22D0D30B9
:100BA8000A128A112C250800780879040319052EE1
:100BB800FD01FD0AF91BEC2D01300310F80DF90DAC
:100BC800FF3E031DE12D0130FC007C08FD07DE2DF2
:100BD80079087B02031DF22D78087A02031CFA2D8E
:100BE8007808FA027908031CFB03FB0201300310A2
:100BF800F90CF80CFF3E031DFB2D0130FD02031D0F
:100C0800EC2D7B08F9007A08F8000800F501F601D8
:100C1800700871040319412EF701F70AF11B202E01
:100C280001300310F00DF10DFF3E031D152E0130AC
:100C3800F4007408F707122E01300310F50DF60DB5
:100C4800FF3E031D212E71087302031D2D2E70080F
:100C58007202031C362E7008F2027108031CF3039B
:100C6800F302751401300310F10CF00CFF3E031D64
:100C7800372E0130F702031D202E7608F100750883
:100C8800F00008000A128A1148250A128A110A126D
:100C98008A113C250A128A11803083120313D80066
:100CA8002530D9000A128A116D250A128A110130DD
:100CB800F0000030F1000A128A1189250A128A11FF
:100CC800710883120313E3007008E2000B30DF00A1
:100CD8005F08D2006308D4006208D30020300A12EB
:100CE8008A111D270A128A1120300A128A11AF258B
:100CF8000A128A11153083120313E1004B30E00009
:100D0800BD30DF00DF0B862EE00B862EE10B862E32
:100D18008D2E5B2E83120313D301F31FA02EF0092F
:100D2800F109F209F309F00A0319F10A0319F20AA1
:100D38000319F30AD301D30AF71FB12EF409F509F1
:100D4800F609F709F40A0319F50A0319F60A03194B
:100D5800F70A0130F8007808D3060030D7000030D1
:100D6800D6000030D5000030D40073087204710436
:100D780070040319062FD201D20AF31BD12E0130B9
:100D8800F8000310F00DF10DF20DF30DF80BC52E60
:100D98000130F8007808D207C12E0130F80003109E
:100DA800D40DD50DD60DD70DF80BD32E73087702B9
:100DB800031DE82E72087602031DE82E71087502DD
:100DC800031DE82E70087402031CF92E7008F40243
:100DD8007108031C710FF5027208031C720FF602EA
:100DE8007308031C730FF702541401300310F30C3B
:100DF800F20CF10CF00CFF3E031DFA2E0130D2026A
:100E0800031DD12E53080319142FD409D509D60967
:100E1800D709D40A0319D50A0319D60A0319D70A18
:100E28005708F3005608F2005508F1005408F0007E
:100E3800080083120313DD005330D5005508D8008D
:100E48000130D207FF30520784000A128A110320AA
:100E58000A128A11D5005508DE005E080319F02F22
:100E680025305E060319442F5E08D5005D0884000E
:100E78005508831380000130D5005508DD07242F5D
:100E8800D9010130D207FF30520784000A128A11B3
:100E980003200A128A11DE00D500D6015608003A4E
:100EA8000319572F242F5508003A0319F02F643AD5
:100EB8000319622F0D3A0319622F242F5808840052
:100EC80083130008DB00840A0008DC000230D50028
:100ED8005508D807DC1F792F0330D5005508D904E9
:100EE800DB09DC09DB0A0319DC0ADE01DE0A5E081D
:100EF800D5005507013E84000A128A1103200A1200
:100F08008A11D6000A128A1103200A128A11D70000
:100F180057085C02031D922F56085B02031C9C2F86
:100F28000130D5005508DE0705305E06031D7B2F0E
:100F3800590803390319AB2F2D30D5005D088400FB
:100F48005508831380000130D5005508DD075E0879
:100F5800D5005508DA00FF30D5005508DA075A0AD7
:100F68000319242F0A30F8000030F9005A08D50078
:100F78005507013E84000A128A1103200A128A11B9
:100F8800F0000A128A1103200A128A11F1005C0883
:100F9800F3005B08F2000A128A110A260A128A1163
:100FA8007108FB007008FA000A128A11D8250A1283
:100FB8008A117808303E83120313D6005608DE00E3
:100FC8005E08D5005D088400550883138000013051
:100FD800D5005508DD07AF2F5D0884008313800115
:100FE800080083132030840052300A128A113425F5
:080FF80083010A128A11462E42
:02400E007A3FF7
:00000001FF
